:100000000C942A000C94E7040C9410050C94390508
:100010000C9447000C94C3070C9447000C944700C1
:100020000C9447000C9447000C9447000C94320742
:100030000C9447000C9447000C9447000C94470024
:100040000C9447000C9447000C9447000C94470014
:100050000C94470011241FBECFE5D8E0DEBFCDBF12
:1000600010E0A0E6B0E0ECEAF0E102C005900D92ED
:10007000AA36B107D9F720E0AAE6B0E001C01D9288
:10008000AC39B207E1F70E943F030C9454080C947A
:10009000000081E0809372000E943B0365E082E4EF
:1000A0000E94A80267E082E40E94A80266E082E45F
:1000B0000E94A80264E082E40E94A80282E00E94FA
:1000C0007C0610927300089589E397E6AFEBBFE3D7
:1000D00080936E0090936F00A0937000B0937100B6
:1000E0008EE090E0A0E0B0E080936A0090936B0017
:1000F000A0936C00B0936D000E94B50264E083E4AD
:100100000E94750262E082E40E94750264E082E46B
:100110000E948E0265E082E40E948E0266E082E424
:100120000E948E0267E082E40E948E0282E00E94BA
:10013000620544E650E060E070E082E00E948805DD
:100140006BE471E082E00E94AA0682E00E949B04B8
:1001500069E470E082E00E94CF040895CF93DF93BA
:100160001F92CDB7DEB71982AE014F5F5F4F64E0DB
:1001700083E40E94820289818823A9F3AE014F5F44
:100180005F4F64E083E40E9482028981882359F3EF
:10019000AE014F5F5F4F64E083E40E94820282E021
:1001A0000E945C0607C0AE014F5F5F4F64E083E4CE
:1001B0000E94820289818111F6CFD5CF60E080E074
:1001C0000E94D90260E081E00E94D90264E082E4EA
:1001D0000E949B0267E082E40E94A80265E082E43C
:1001E0000E94A80266E082E40E94A80282E30E94C4
:1001F0002D030E943703089560E080E00E94D90239
:1002000061E081E00E94D90289E20E942D030E94F0
:10021000370366E082E40E949B0267E082E40E946A
:10022000A80265E082E40E94A80264E082E40E94E1
:10023000A802089560E080E00E94D90260E081E0B9
:100240000E94D9028EE10E942D030E94370367E0CD
:1002500082E40E949B0265E082E40E94A80266E0BC
:1002600082E40E94A80264E082E40E94A802089549
:100270000E943B0365E082E40E949B0267E082E407
:100280000E94A80266E082E40E94A80264E082E480
:100290000E94A8020895CF92DF92EF92FF92809180
:1002A0007200811110C082E0809372000E94C20629
:1002B00048EE53E060E070E082E00E94E60682E0F3
:1002C0000E94D70611C0813079F482E080937200D9
:1002D0000E94C20648EE53E060E070E082E00E94B7
:1002E000E60682E00E94D706209173002E3130F49A
:1002F0002F5F209373000E94DE00F2C082EE820F17
:10030000853040F40E943801809173008F5F8093A4
:100310007300E6C02332E0F0422F50E060E070E06E
:1003200080916A0090916B00A0916C00B0916D007B
:100330008396A11DB11D481759076A077B0740F432
:100340000E94FC00809173008F5F80937300C8C08F
:10035000422F50E060E070E080916A0090916B0065
:10036000A0916C00B0916D006C017D0133E2C30E71
:10037000D11CE11CF11C4C155D056E057F05A0F03C
:100380006C017D0138E2C30ED11CE11CF11C4C153F
:100390005D056E057F0540F40E9438018091730071
:1003A0008F5F809373009CC06C017D0138E2C30EA7
:1003B000D11CE11CF11C4C155D056E057F0590F00C
:1003C0006C017D013CE3C30ED11CE11CF11C4C15FA
:1003D0005D056E057F0530F42F5F209373000E944A
:1003E0001A017EC06C017D012CE3C20ED11CE11C00
:1003F000F11C4C155D056E057F05A0F06C017D01BB
:1004000031E4C30ED11CE11CF11C4C155D056E05D9
:100410007F0540F40E943801809173008F5F8093C4
:1004200073005EC06C017D0121E4C20ED11CE11C91
:10043000F11C4C155D056E057F05C0F06C017D015A
:10044000CC0CDD1CEE1CFF1C31E4C30ED11CE11CE6
:10045000F11C4C155D056E057F0540F40E94FC0003
:10046000809173008F5F809373003AC0880F991F4B
:10047000AA1FBB1F6C017D0121E4C20ED11CE11C2F
:10048000F11C4C155D056E057F0550F18A5B9F4F91
:10049000AF4FBF4F481759076A077B0708F50E94FF
:1004A0003801809173008F5F8093730090E0A0E02B
:1004B000B0E040916A0050916B0060916C007091C7
:1004C0006D00440F551F661F771F4A5B5F4F6F4FCC
:1004D0007F4F84179507A607B70710F01092730097
:1004E000FF90EF90DF90CF900895853438F4683016
:1004F00038F440E00E94440380E0089581E00895CC
:1005000082E00895853430F4683030F40E945A0453
:1005100080E0089581E0089582E00895853438F4FC
:10052000683038F441E00E94440380E0089581E09F
:10053000089582E00895853438F4683038F441E055
:100540000E94CF0380E0089581E0089582E008953D
:10055000853438F4683038F440E00E94CF0380E0FE
:10056000089581E0089582E008951F93CF93DF936B
:1005700010E016C0C12FD0E0CE01880F991F880F60
:10058000991FC80FD91FC05ADF4F41E06A81898186
:100590000E94440341E06C818B810E9444031F5FF1
:1005A000123040F380E00E946205DF91CF911F91ED
:1005B0000895FF920F931F93CF93DF93D82FF62EBA
:1005C000C0E042C08C2F90E0FC01EE0FFF1FEE0F49
:1005D000FF1FE80FF91FE05AFF4F20812D1333C092
:1005E000FF2021F021E0F216C1F02DC08C01000F98
:1005F000111F000F111F800F911F8C01005A1F4FF8
:1006000041E0F801628181810E94CF0340E0F8015E
:10061000648183810E94CF0316C08C01000F111FDB
:10062000000F111F800F911F8C01005A1F4F40E0D7
:10063000F801628181810E94CF0341E0F801648169
:1006400083810E94CF03CF5FC23008F4BBCFDF911C
:10065000CF911F910F91FF900895853638F4482F60
:1006600050E060E070E080E00E942606089580E09F
:100670000E945C06089580E00E947C0608950E9416
:1006800064000E94AE00FFCF683008F080C04423B1
:1006900021F0413009F440C07CC08234B1F018F43C
:1006A000813431F078C08334E9F0843441F173C08F
:1006B0002AB381E090E002C0880F991F6A95E2F7A3
:1006C000809582238ABB80E0089527B381E090E083
:1006D00002C0880F991F6A95E2F78095822387BB35
:1006E00080E0089524B381E090E002C0880F991F54
:1006F0006A95E2F78095822384BB80E0089521B358
:1007000081E090E002C0880F991F6A95E2F780951A
:10071000822381BB80E008958234A9F018F48134EB
:1007200031F03BC08334D9F0843429F136C02AB388
:1007300081E090E002C0880F991F6A95E2F7822B52
:100740008ABB80E0089527B381E090E002C0880F63
:10075000991F6A95E2F7822B87BB80E0089524B346
:1007600081E090E002C0880F991F6A95E2F7822B22
:1007700084BB80E0089521B381E090E002C0880F3F
:10078000991F6A95E2F7822B81BB80E0089582E091
:10079000089584E0089581E0089581E00895683027
:1007A00008F080C0442321F0413009F440C07CC0EF
:1007B0008234B1F018F4813431F078C08334E9F038
:1007C000843441F173C02BB381E090E002C0880F04
:1007D000991F6A95E2F7809582238BBB80E008958C
:1007E00028B381E090E002C0880F991F6A95E2F774
:1007F0008095822388BB80E0089525B381E090E056
:1008000002C0880F991F6A95E2F78095822385BB05
:1008100080E0089522B381E090E002C0880F991F24
:100820006A95E2F78095822382BB80E00895823446
:10083000A9F018F4813431F03BC08334D9F084340A
:1008400029F136C02BB381E090E002C0880F991FD8
:100850006A95E2F7822B8BBB80E0089528B381E094
:1008600090E002C0880F991F6A95E2F7822B88BB3F
:1008700080E0089525B381E090E002C0880F991FC1
:100880006A95E2F7822B85BB80E0089522B381E070
:1008900090E002C0880F991F6A95E2F7822B82BB15
:1008A00080E0089582E0089583E0089581E008954E
:1008B00081E008956830D8F58234A9F018F48134C5
:1008C00031F037C08334D9F0843429F132C089B390
:1008D00090E002C0959587956A95E2F78170FA01DC
:1008E000808380E0089586B390E002C09595879557
:1008F0006A95E2F78170FA01808380E0089583B3FE
:1009000090E002C0959587956A95E2F78170FA01AB
:10091000808380E0089580B390E002C0959587952C
:100920006A95E2F78170FA01808380E0089582E0A1
:10093000089581E00895813061F018F0823089F0E7
:1009400015C095B7916095BF95B7926095BF20E0AF
:100950000EC095B7946095BF95B7986095BF20E09D
:1009600006C094B7906494BF20E001C021E08130BC
:1009700041F018F0823049F00CC08BB780648BBF17
:1009800009C08BB780688BBF05C08BB780628BBFF7
:1009900001C021E09FB790689FBF822F0895611525
:1009A0007105A1F0811105C0709379006093780002
:1009B0000895813029F4709377006093760008954C
:1009C000823021F4709375006093740008951F9233
:1009D0000F920FB60F9211242F933F934F935F9373
:1009E0006F937F938F939F93AF93BF93EF93FF93F7
:1009F000E0917800F0917900309709F00995FF9126
:100A0000EF91BF91AF919F918F917F916F915F9186
:100A10004F913F912F910F900FBE0F901F901895FF
:100A20001F920F920FB60F9211242F933F934F9363
:100A30005F936F937F938F939F93AF93BF93EF9346
:100A4000FF93E0917600F0917700309709F00995D7
:100A5000FF91EF91BF91AF919F918F917F916F9196
:100A60005F914F913F912F910F900FBE0F901F906C
:100A700018951F920F920FB60F9211242F933F9348
:100A80004F935F936F937F938F939F93AF93BF9396
:100A9000EF93FF93E0917400F0917500309709F0A7
:100AA0000995FF91EF91BF91AF919F918F917F91A8
:100AB0006F915F914F913F912F910F900FBE0F90CB
:100AC0001F90189581110EC083B7877F83BF83B7AE
:100AD0008F7B83BF89B7816089BF8FB780688FBFE5
:100AE00080E00895813081F0823081F485B5877F80
:100AF00085BD85B58F7B85BD89B7806489BF8FB77C
:100B000080688FBF80E0089580E0089581E00895B7
:100B10000F931F9381113FC0A8EEB3E09A01AB0180
:100B20000E943A088B019C01689413F8369527952A
:100B3000179507951694D1F7DC01CB01072E7CE0C1
:100B4000B695A795979587957A95D1F7702D80934F
:100B5000940090939500A0939600B0939700009313
:100B60009300002309F468C0019502BF80919400AE
:100B700090919500A0919600B09197000196A11DCB
:100B8000B11D8093940090939500A0939600B0932C
:100B9000970080E058C0813009F450C0823009F0DD
:100BA0004FC0A8EEB3E09A01AB010E943A088B0156
:100BB0009C01689413F83695279517950795169418
:100BC000D1F7AB01BC01032E3CE0769567955795B4
:100BD00047953A95D1F7302D40938F005093900070
:100BE0006093910070939200D901C8019927AA27B8
:100BF000BB2780938B0090938C00A0938D00B093C3
:100C00008E000097A105B105E9F0819584BD809122
:100C10008F0090919000A0919100B0919200019668
:100C2000A11DB11D80938F0090939000A09391001F
:100C3000B093920080E007C080E005C080E003C070
:100C400081E001C080E01F910F910895811130C0B3
:100C500081E080938400962F852F742F662724E6E9
:100C600030E040E050E00E94180830939900209353
:100C7000980080E091E0821B930B90939B008093FF
:100C80009A0041E064E084E40E94440341E065E0AE
:100C900084E40E9444038091830081110BC0809101
:100CA0009800819582BF81E08093830080E0089561
:100CB00081E0089580E0089581110BC083B78460BE
:100CC00083BF83B78D7F83BF83B78E7F83BF80E071
:100CD0000895813069F0823069F485B5846085BDFE
:100CE00085B5826085BD85B58E7F85BD80E0089520
:100CF00080E0089581E00895811119C080918400F9
:100D0000882351F040E064E084E40E94CF0340E097
:100D100065E084E40E94CF0383B78B7F83BF83B7F2
:100D20008D7F83BF83B78E7F83BF80E0089581303E
:100D300069F0823069F485B58B7F85BD85B58D7F7F
:100D400085BD85B58E7F85BD80E0089580E00895DE
:100D500081E0089561157105A1F0811105C07093BE
:100D60008A00609389000895813029F47093880087
:100D7000609387000895823021F470938600609319
:100D800085000895811107C089B78E7F89BF89B713
:100D90008D7F89BF0AC0813041F0823031F489B73C
:100DA0008F7B89BF89B78F7789BF81E008958111D3
:100DB00004C089B7816089BF07C0813029F08230C3
:100DC00019F489B7806489BF81E00895CF92DF92DA
:100DD000EF92FF920F931F938823E1F18130D1F1BD
:100DE0008230C1F514BCA8EEB3E09A01AB010E94B9
:100DF0003A086B017C01689413F8F694E794D79451
:100E0000C7941694D1F78B019C010F2EFCE0369508
:100E1000279517950795FA95D1F7F02DCC2031F04D
:100E2000C194C4BC0F5F1F4F2F4F3F4F40E050E0B5
:100E3000BA010AC008B606FEFDCF88B7806488BF35
:100E40004F5F5F4F6F4F7F4F401751076207730728
:100E500088F314BC81E01F910F91FF90EF90DF9019
:100E6000CF9008951F920F920FB60F9211242F93D7
:100E70003F934F935F936F937F938F939F93AF9322
:100E8000BF93EF93FF9380918400811135C08091CF
:100E90007F0090918000A0918100B0918200019626
:100EA000A11DB11D80937F0090938000A0938100CD
:100EB000B09382004091940050919500609196000B
:100EC0007091970084179507A607B70709F04AC0E5
:100ED000E0918900F0918A00309709F0099510920D
:100EE0007F00109280001092810010928200809109
:100EF0009300819582BF36C080917E008823C9F01F
:100F000040E064E084E40E94CF0340E065E084E4D4
:100F10000E94CF0380919A00819582BF80919A00B0
:100F200090919B008F3F910509F0E0F410927E00B4
:100F300019C041E064E084E40E94CF0341E065E031
:100F400084E40E94CF0380919800819582BF8091B4
:100F50009800909199008F3F910509F018F481E075
:100F600080937E00FF91EF91BF91AF919F918F9100
:100F70007F916F915F914F913F912F910F900FBE95
:100F80000F901F9018951F920F920FB60F92112479
:100F90002F933F934F935F936F937F938F939F9381
:100FA000AF93BF93EF93FF9380917A0090917B0072
:100FB000A0917C00B0917D000196A11DB11D809390
:100FC0007A0090937B00A0937C00B0937D004091C9
:100FD0008F00509190006091910070919200841761
:100FE0009507A607B70799F4E0918500F091860070
:100FF000309709F0099510927A0010927B001092B8
:101000007C0010927D0080918B00819582BFFF91C2
:10101000EF91BF91AF919F918F917F916F915F9170
:101020004F913F912F910F900FBE0F901F901895E9
:10103000A1E21A2EAA1BBB1BFD010DC0AA1FBB1FDC
:10104000EE1FFF1FA217B307E407F50720F0A21B4E
:10105000B30BE40BF50B661F771F881F991F1A94BB
:1010600069F760957095809590959B01AC01BD01E5
:10107000CF0108950E944508A59F900DB49F900D43
:10108000A49F800D911D11240895A29FB001B39FCC
:10109000C001A39F700D811D1124911DB29F700D81
:0C10A000811D1124911D0895F894FFCFCC
:0A10AC000044024403014406440717
:00000001FF
